:1000000014C024C031C021C020C01FC01EC01DC0EC
:100010007EC01BC01AC019C018C017C016C015C0BA
:1000200014C013C012C098C010C011241FBECFE569
:10003000D2E0DEBFCDBF20E0A0E6B0E001C01D925F
:10004000A837B207E1F73AD1A2C1DACF1F920F92D7
:100050000FB60F9211248F9381E08EBD8F910F9078
:100060000FBE0F901F9018951F920F920FB60F9210
:1000700011242F933F934F935F936F937F938F93AD
:100080009F93AF93BF93EF93FF931EBC4CB55DB5A9
:1000900081E792E0489F9001499F300D589F300DB5
:1000A0001124ADECBCEC5DD1FC01F695E795F6951D
:1000B000E795F695E79520916400309165004091B1
:1000C00066005091670060E070E88EE390E03AD1FE
:1000D000DC01CB018E0F9F1FA11DB11D809360001D
:1000E00090936100A0936200B0936300FF91EF9141
:1000F000BF91AF919F918F917F916F915F914F9140
:100100003F912F910F900FBE0F901F9018951F9247
:100110000F920FB60F9211248F939F93AF93BF93BB
:100120008091640090916500A0916600B091670095
:100130000196A11DB11D8093640090936500A0936A
:100140006600B0936700BF91AF919F918F910F9020
:100150000FBE0F901F9018951F920F920FB60F921F
:1001600011244F935F936F937F938F939F93AF93DC
:10017000BF938091680090916900A0916A00B0914E
:100180006B00880F991FAA1FBB1FAC01BD01440F54
:10019000551F661F771F440F551F661F771F840F5B
:1001A000951FA61FB71F409170005091710060917C
:1001B000720070917300481759076A077B0710F0A7
:1001C00088B388BB8091680090916900A0916A0013
:1001D000B0916B00880F991FAA1FBB1FAC01BD0116
:1001E000440F551F661F771F440F551F661F771F4B
:1001F000840F951FA61FB71F409174005091750082
:100200006091760070917700481759076A077B075D
:1002100010F088B388BB8091680090916900A0912C
:100220006A00B0916B00880F991FAA1FBB1FAC0119
:10023000BD01440F551F661F771F440F551F661FD2
:10024000771F840F951FA61FB71F4091780050910C
:10025000790060917A0070917B00481759076A070E
:100260007B0728F088B388BB83B78E7F83BF8091DC
:10027000680090916900A0916A00B0916B000196AE
:10028000A11DB11D8093680090936900A0936A003E
:10029000B0936B00BF91AF919F918F917F916F91C0
:1002A0005F914F910F900FBE0F901F90189587E6AA
:1002B00089B986E080BD88E18AB9089580EA8CBF5B
:1002C00080E496E09BBD8ABD1ABA8AB383608ABB7C
:1002D000EEDFECE6F0E048E750E070E060E023C0DD
:1002E0005F9BFECF8CB190E0022E02C0880F991F59
:1002F0000A94E2F7AA2797FDA095BA2FC080D18073
:10030000E280F3808C299D29AE29BF2980839183C7
:10031000A283B383285F3F4F2032310509F734961B
:10032000E417F50719F0272F362FDACF81E083BFC6
:1003300089B7826089BF85B78F6085BF8FEF87BB24
:1003400018BAFFCFDB018F939F9317D0BF91AF9166
:10035000A29F800D911DA39F900DB29F900D11241F
:100360000895A29FB001B39FC001A39F01D0B29F87
:10037000700D811D1124911D0895F3DFA59F900D2F
:10038000B49F900DA49F800D911D11240895F894A1
:02039000FFCF9D
:00000001FF
