S00D000075436F64652E7372656327
S113000014C024C031C021C020C01FC01EC01DC0E8
S113001081C01BC01AC019C018C017C016C015C0B3
S113002014C013C012C09BC010C011241FBECFE562
S1130030D2E0DEBFCDBF20E0A0E6B0E001C01D925B
S1130040A937B207E1F73DD1CDC1DACF1F920F92A4
S11300500FB60F9211248F9381E08EBD8F910F9074
S11300600FBE0F901F9018951F920F920FB60F920C
S113007011242F933F934F935F936F937F938F93A9
S11300809F93AF93BF93EF93FF931EBC4CB55DB5A5
S113009081E792E0489F9001499F300D589F300DB1
S11300A01124ADECBCEC73D1FC01F695E795F69503
S11300B0E795F695E79520916500309166004091AB
S11300C067005091680060E070E88EE390E050D1E2
S11300D0DC01CB018E0F9F1FA11DB11D8093610018
S11300E090936200A0936300B093640081E08093D6
S11300F06000FF91EF91BF91AF919F918F917F919C
S11301006F915F914F913F912F910F900FBE0F9080
S11301101F9018951F920F920FB60F9211248F9370
S11301209F93AF93BF938091650090916600A091D7
S11301306700B09168000196A11DB11D8093650010
S113014090936600A0936700B0936800BF91AF914D
S11301509F918F910F900FBE0F901F9018951F9233
S11301600F920FB60F9211244F935F936F937F9367
S11301708F939F93AF93BF938091690090916A008E
S1130180A0916B00B0916C00880F991FAA1FBB1F30
S1130190AC01BD01440F551F661F771F440F551F47
S11301A0661F771F840F951FA61FB71F409171000C
S11301B05091720060917300709174004817590750
S11301C06A077B0710F088B388BB8091690090911F
S11301D06A00A0916B00B0916C00880F991FAA1F50
S11301E0BB1FAC01BD01440F551F661F771F440F91
S11301F0551F661F771F840F951FA61FB71F4091B9
S113020075005091760060917700709178004817DE
S113021059076A077B0710F088B388BB809169008F
S113022090916A00A0916B00B0916C00880F991FA7
S1130230AA1FBB1FAC01BD01440F551F661F771FCA
S1130240440F551F661F771F840F951FA61FB71FE6
S11302504091790050917A0060917B0070917C000C
S1130260481759076A077B0728F088B388BB83B708
S11302708E7F83BF8091690090916A00A0916B008A
S1130280B0916C000196A11DB11D809369009093FB
S11302906A00A0936B00B0936C00BF91AF919F91E3
S11302A08F917F916F915F914F910F900FBE0F903F
S11302B01F90189587E689B986E080BD88E18AB9E0
S11302C0089580EA8CBF80E496E09BBD8ABD11BA94
S11302D081B3836081BBEEDF40E050E0FF24FA94F9
S11302E0C1E7D0E000E010E021C05F9BFECF8CB1FD
S11302F090E0022E02C0880F991F0A94E2F7AA2701
S113030097FDA095BA2F80809180A280B380882920
S11303109929AA29BB2980839183A283B383285F67
S11303203F4F2032310509F74F5F5F4F433051058E
S113033054F4202F312FFA01EE0FFF1FEE0FFF1F91
S1130340E359FF4FD2CFFABA1BBADF9A6881798199
S113035082E090E032D088819981AA81BB81BD017D
S11303608827992780E090E028D0402F512FDECFB6
S1130370DB018F939F9317D0BF91AF91A29F800D04
S1130380911DA39F900DB29F900D11240895A29FDB
S1130390B001B39FC001A39F01D0B29F700D811D16
S11303A01124911D0895F3DFA59F900DB49F900D26
S11303B0A49F800D911D112408950196272F02D02A
S11303C000C0262FE199FECF9FBB8EBBE09A019718
S11303D00DB2021631F02DBB0FB6F894E29AE19AF1
S10B03E00FBE0895F894FFCF4D
S9030000FC
